:020000040000fa
:080000000002040000000000f2
:020000040000fa
:1000080004180000081800000c1800001018000060
:1000180014180000181800001c1800002018000010
:1000280024180000281800002c18000030180000c0
:1000380034180000381800003c1800004018000070
:1000480044180000481800004c1800005018000020
:1000580054180000581800005c18000060180000d0
:1000680064180000681800006c1800007018000080
:1000780074180000781800007c1800008018000030
:1000880084180000881800008c18000090180000e0
:1000980094180000981800009c180000a018000090
:1000a800a4180000a8180000ac180000b018000040
:1000b800b4180000b8180000bc180000c0180000f0
:1000c800c4180000c8180000cc180000d0180000a0
:1000d800d4180000d8180000dc180000e018000050
:1000e800e4180000e8180000ec180000f018000000
:1000f800f4180000f8180000fc18000000190000af
:1001080004190000081900000c190000101900005b
:1001180014190000181900001c190000201900000b
:1001280024190000281900002c19000030190000bb
:1001380034190000381900003c190000401900006b
:1001480044190000481900004c190000501900001b
:1001580054190000581900005c19000060190000cb
:1001680064190000681900006c190000701900007b
:1001780074190000781900007c190000801900002b
:1001880084190000881900008c19000090190000db
:1001980094190000981900009c190000a01900008b
:1001a800a4190000a8190000ac190000b01900003b
:1001b800b4190000b8190000bc190000c0190000eb
:1001c800c4190000c8190000cc190000d01900009b
:1001d800d4190000d8190000dc190000e01900004b
:1001e800e4190000e8190000ec190000f0190000fb
:1001f800f4190000f8190000fc190000001a0000aa
:10020800041a0000081a00000c1a0000101a000056
:10021800141a0000181a00001c1a0000201a000006
:10022800241a0000281a00002c1a0000301a0000b6
:10023800341a0000381a00003c1a0000401a000066
:10024800441a0000481a00004c1a0000501a000016
:10025800541a0000581a00005c1a0000601a0000c6
:10026800641a0000681a00006c1a0000701a000076
:10027800741a0000781a00007c1a0000801a000026
:10028800841a0000881a00008c1a0000901a0000d6
:10029800941a0000981a00009c1a0000a01a000086
:1002a800a41a0000a81a0000ac1a0000b01a000036
:1002b800b41a0000b81a0000bc1a0000c01a0000e6
:1002c800c41a0000c81a0000cc1a0000d01a000096
:1002d800d41a0000d81a0000dc1a0000e01a000046
:1002e800e41a0000e81a0000ec1a0000f01a0000f6
:1002f800f41a0000f81a0000fc1a0000001b0000a5
:10030800041b0000081b00000c1b0000101b000051
:10031800141b0000181b00001c1b0000201b000001
:1003280000000000000000000000000000000000c5
:1003380000000000000000000000000000000000b5
:1003480000000000000000000000000000000000a5
:100358000000000000000000000000000000000095
:100368000000000000000000000000000000000085
:100378000000000000000000000000000000000075
:100388000000000000000000000000000000000065
:100398000000000000000000000000000000000055
:1003a8000000000000000000000000000000000045
:1003b8000000000000000000000000000000000035
:1003c8000000000000000000000000000000000025
:1003d8000000000000000000000000000000000015
:1003e8000000000000000000000000000000000005
:0803f8000000000000000000fd
:020000040000fa
:100400000f1b21000eff24000e01880000000000d9
:10041000000020000000e000020032000001200087
:100420002002880018000700790007000000e000a3
:1004300003003a0000a6200001002000020037005f
:100440000000200001002000810f70000200320037
:100450000001eb0012000700100007006d0007000c
:10046000000020000000e000020032000000020056
:10047000000000007e03020000000000760007007c
:100480000040da000000fe00000420000000e00050
:1004900002003200002020009001880000000600c9
:1004a000a1028800800478000000eb0020003700e3
:1004b0000a054100e284440054a0b4009905ba0042
:1004c000e284440054a0b4009906ba00e2844400d7
:1004d00054a0b4000006eb00476fde00fd07b20039
:1004e000ae018800636ce10003003a000ad8010005
:1004f0000000eb000e003700606ce10008003a00dd
:10050000004deb000a05e800020039003420ec0041
:100510000af0a0008b05e900f9ff3e000400370057
:100520006168e100010032000086eb000b0007006b
:1005300019c7ba001905ba000e04e00003003a001a
:100540000a00e000daff3a0000000600fe07b200f1
:10055000ae0288008a047800f5ff37000cd0a300b3
:10056000e20f4d001c003b0089027800354dba00b7
:100570000a05e800020039003420ec000af0a0006f
:100580008b05e9000f003200254dba000a05e8008e
:10059000020039003420ec000af0a0008b05e900cd
:1005a000080032000c00e0000600320015cdba0051
:1005b0000a05e800020039003420ec000af0a0002f
:1005c0008b05e9008984e80054a0b4000b00e0002a
:1005d000e2ff3a00000006009902ba00055d7800cb
:1005e0008b05e900f7ff3200c82ade00055d7800c0
:1005f0008b05e900f3ff32000c00e000f1ff320050
:1006000019ddba00eeff37000040da000000fe00fe
:1006100000000500889fbe008a9fbe005400f800bd
:100620000a0020000a00e000070032000900200054
:1006300008002000a9028800b805ba000b000100dc
:100640000a85e900fcff3c005400f9004f05be009c
:100650004f04be0000000600889fbe008a9fbe00b7
:100660005400f8000a0020000a00e000f6ff320003
:0c0670000900200008002000eeff370009
:020000040000fa
:10067c00000000000000000064100000b71d000026
:10068c00c82000006e3b0000ac300000d9260000f2
:10069c0090410000dc760000f45100006b6b000010
:1006ac0058610000b24d00003c7100000550000084
:1006bc0020830000b8ed0000449300000ff0000010
:1006cc00e8a30000d6d600008cb3000061cb00007c
:1006dc00b0c20000649b0000d4d20000d38600009e
:1006ec0078e200000aa000001cf20000bdbd000072
:020000040000fa
:1006fc000c00fa00889fbe008a9fbe008c1f7800f9
:10070c00307c8000a8400a0000000000307c88008b
:10071c005b4ea800574ea9005b4ea9005003070082
:10072c0055aea90057aea8005faea8007202070034
:10073c0080030700000478007e03070008005000c7
:10074c00e10f5000fcff3600dda90a00580e000036
:10075c0078030700000478000904e00019003a004f
:10076c000000eb000700370072030700f1242100a2
:10077c008100440000805000750107000000e0007b
:10078c00f5ff3200e10f50006c013a005b4ea900fe
:10079c00210021009140780002c3b30082cf5000a9
:1007ac00b400320018003e00f0cf50004f00320071
:1007bc0000c2b30080cf50009000320020c0b300c4
:1007cc004e0037005b03070008005000e1242100b5
:1007dc00810f5000e4ff3600a90107000000e00083
:1007ec00dfff32006d0207003c0307005faea9007b
:1007fc0055aea8005b4ea800574ea8000018040088
:10080c0000000000d6ff370000c5b30080cf5000b9
:10081c00fe00320000c6b30080cf50003801320019
:10082c0000c4b30080cf5000e4ff3a0080002000e9
:10083c000010e30030003a0050002100fb020700da
:10084c000004be0090002100f80207000001be0069
:10085c00000074008180740072825700610a60008d
:10086c008002eb0085bf9f007fb097008fb8970088
:10087c00e00f5000e08f580097003a00e00f510055
:10088c00e08f5900a7003200f17f2100810f540046
:10089c00e08f5c00a300360008004100898049000d
:1008ac0004802b0025002000840f5000858f5800f9
:1008bc009c003e000800be00b5010700a2182100f4
:1008cc0030419800c80ade00c809dd004802de008d
:1008dc000482710044419800514198004808de00a0
:1008ec0060419800410020004100370009808000e1
:1008fc000900e0000300320030c0b300fd02070025
:10090c0052003700a818210031c3b30031449800bd
:10091c004144980031c4b30051449800b1c4b300b1
:10092c00614498007044980000002000f10f2000f2
:10093c00b0020700004c9800c809de00480add0030
:10094c004801de0002017200124c9800214c980004
:10095c004808de00304c980020002000f10f2000e9
:10096c00a4020700404c9800c809de00c80add004c
:10097c004801de0002817200524c9800614c9800d4
:10098c004808de00704c98000040eb0009549800b9
:10099c0041c0b30011549800205498003054980072
:1009ac0001c8b3004154980050549800605498000a
:1009bc0081c1b30071549800005c9800105c9800e1
:1009cc00205c980071cbb300315c980021c0b3005f
:1009dc00415c9800505c9800605c980082cbb3003e
:1009ec00725c98000164980010649800f10120007a
:1009fc0060c0b3003d020700140037000010e20095
:100a0c00bdff3a0008802100090020000800be004c
:100a1c00000207000000e00002003a0060c0b300d2
:100a2c00b6ff370000402000010020000804400001
:100a3c008984480000802b0021002000800f540086
:100a4c00818f5c00f1ff3a00b4020700a061200026
:100a5c00bf0007000000e0004aff3a00b5020700a3
:100a6c004c00de0061006800aa200a005a0e00004b
:100a7c00f6ff370000808000e60f50009eff360026
:100a8c006401500038002000050009000881d800de
:100a9c0001047800000678000100e00096ff3a009f
:100aac0021182000810f510093ff3e0050002100bf
:100abc005e0207000005be006e81570063096000ee
:100acc00a8bf9f001fba9700afba9700e00f520063
:100adc00e08f5a000200320050c0b30087ff37008d
:100aec000c00e8000000a1008000eb0000004000ba
:100afc00818048000000450081804d00f57f210079
:100b0c00850f5500e08f5d000600360002702b004b
:100b1c002300200099002100820f5000838f580081
:100b2c003400360040c0b30074ff37000900e80001
:100b3c001081fb008001eb004818dd00c810de00be
:100b4c00810070004810dd000981e8001281fb0073
:100b5c008001eb00c011dd000200200002017000da
:100b6c00838170001980fb008000eb000001710094
:100b7c00818171000800e800800f560020003600cb
:100b8c00648044001080fb008000eb00480add000c
:100b9c00c802de00850272004802dd006580440058
:100bac001080fb008000eb00c000dd000000200086
:100bbc000000720081807200638244001482fb008a
:100bcc008002eb0004027000858270006140b80066
:100bdc0000004000818048000000450081804d00ed
:100bec001a010700e68444000000e0008bff32008d
:100bfc000884e800880f5600ccff3e0092ff3700b7
:100c0c00f4ff2f00f50f2000f0ff370080002000cc
:100c1c000010e30038ff3a005000210003020700e7
:100c2c000005be0061005000e0805800f2ef290082
:100c3c0023002000820f5000838f5800b9ff3e0024
:100c4c00f6815700e10965000002eb00e4b79f0054
:100c5c005fb09700efb09700e00f5000e08f5800a6
:100c6c00b0ff3a0090002100f00107000004be0024
:100c7c000a01be000080210001002000c400070012
:100c8c00800f5400818f5c000200320070c0b300f2
:100c9c001aff37008982fb00080278000a01be00a7
:100cac0000702b0021002000e80007000000e0008d
:100cbc005aff32004849de000300200014002000d7
:100ccc000500200040702b0021002000df000700f1
:100cdc000000e00051ff3200c4cc2b00450b20007b
:100cec0032332400b304200080702b00210020003c
:100cfc00d60007000000e00048ff320052ff37002a
:100d0c000010e200fcfe3a005d0007000000e0006d
:100d1c00deff32000102070020010700ef0107008f
:100d2c005faea90055aea8005b4ea800574ea800b8
:100d3c00001804000000000044ff3700e20f5000d0
:100d4c0042ff3a005b4ea90010c0b300ebfe370027
:020000040000fa
:100d5c000400fa00889fbe008a1f7800e8805700c4
:100d6c00790107000000e00002003a000001eb00ee
:100d7c001a0037000ff89700e14f5000fbff3a00c4
:100d8c00280021005a00210088047800880078008f
:100d9c0020f420006c0107000000e000f3ff32009b
:100dac000804e8008a0f5400f8ff3a0030002100d4
:100dbc001080fb00410021009180fb00c808dd0081
:100dcc008100700001808800401820002200200063
:100ddc000004eb00808f50000c00360002007800fd
:100dec004f0578004f04be000080fa00000006009a
:100dfc00e30044008180440020f4200052010700ed
:100e0c000000e000d9ff32000804e8000800780078
:100e1c000010e300f6ff3e00e980570020f42000ac
:100e2c00490107000000e000d0ff3200ea805700c3
:100e3c0020f42000440107000000e000cbff32004a
:100e4c00eff097000184fb004844dd007ff1970030
:100e5c000280fb000804700000002100320020001a
:100e6c0090004100200021004e01070012002000dc
:100e7c00800f5400d9ff320022002000d7ff37002a
:020000040000fa
:100e8c000400fa008a9fbe0080702b002100200015
:100e9c005801070032332400b3042000820f5000a5
:100eac00838f5800040032000000eb004f05be0099
:100ebc000080fa0000000600a0702b00210020002a
:100ecc004c010700c4cc2b00450b2000840f5000b4
:100edc00858f5800f4ff3a0060702b002100200031
:100eec0044010700e10f5000e08f5800eeff3a007c
:100efc0000702b00210020003e0107000001be0005
:100f0c0061005000e0805800f4ef2900250020001b
:100f1c00840f5000858f5800e3ff3e006100610094
:100f2c008000eb00e00f5000e08f5800deff3a002d
:100f3c0020702b0021002000c2bf9f00d3bf9f0058
:100f4c002c0107000005be0040702b002100200082
:100f5c0028010700c800dd00000020000a05700011
:100f6c008b8570004fb99700dfb997000080210086
:100f7c000100200006000700800f5500818f5d00e6
:100f8c000000eb000080ad000000a200c7ff37009e
:020000040000fa
:100f9c000800fa00889fbe008a9fbe008c9fbe008e
:100fac000002be000203be000006be000084eb007f
:100fbc008084eb000400430085804b008c0f5000b4
:100fcc008d8f580007003e000880ea008980ea00f7
:100fdc004f06be004f05be004f04be000080fa0055
:100fec00000006000c00be00e4b79f00f5b79f00a0
:100ffc0086bf9f0097bf9f00fe0007000005be0044
:10100c00004178000800be009f000700485cdd002e
:10101c004851de0002017400c859de009a00070036
:10102c004059de0003002000970007000004be00ba
:10103c0062064600e0864e009fbb97000fbb9700f0
:0c104c00ffb297006fb29700daff370088
:020000040000fa
:10105800889fbe00630460008004eb000003eb007f
:10106800e00f5400e08f5c0021003a00d008e20055
:10107800feff3500a1468800904688001000240035
:1010880080468800a7028000a00f2000a0028800e8
:101098008000eb008208bb00f00f20008081610017
:1010a8008388bb00210020008408bb000080620008
:1010b8008088bb000700fc0050052000b04688006f
:1010c800a00a2000b0468800d1e8a800000000006f
:1010d80000000000d008e200feff3500d1a8ab00f8
:1010e8000003eb0006b0ad000600a200a7028800ce
:0c10f800060078004f04be000000060057
:020000040000fa
:101104003f4ea8003b4ea9003b6ea8000000eb0038
:1011140051052000b1468800a10a2000b14688008c
:10112400006888001000200050200a009a0d00007a
:10113400b0c3b30028edb7000080200051052000a3
:10114400b1468800a10a2000b146880000688800e2
:101154003822ef003a22ef00d0118000a9400a00a3
:1011640000000000d01188003b62a80038e2a9000a
:1011740030022000001288004222ef0000ff2f00fe
:101184003822b600d011800054400a00000000004c
:10119400d011880039e2a80038a2a8003882a8003b
:0411a4000000060041
:020000040000fa
:1011a800e200070038a2a9003882a90039e2a900a4
:1011b8003822ef003a22ef004022ef004222ef00ef
:1011c8003c22ef003e22ef000000eb00510520001a
:1011d800b1468800a10a2000b1468800006888004e
:1011e800d06c800050400a0000000000d06c8800dd
:1011f800f0c3b30028edb70000802000510520009f
:10120800b1468800a10a2000b1468800006888001d
:081218003b4ea8000000060097
:020000040000fa
:1012200000027800f43fb2008002eb000001eb0006
:10123000e00f5200e08f5a0014003a00d008e2009c
:10124000feff3500a146880090468800300024004b
:10125000804688000700fc0050052000b04688004a
:10126000a00a2000b0468800d1e8a80000000000d5
:1012700000000000d008e200feff3500d1a8ab005e
:101280000001eb000290ad000200a2000200780015
:041290000000060054
:020000040000fa
:101294000281fb008001eb0000006900818069008d
:1012a400c409de004c0add004401de0002017200c4
:1012b400e13328006f0060004200dd000080400040
:1012c40030026900a08269000401be004c28dd00e0
:1012d4004422de0004027000c42ade006f016100b3
:1012e4004211dd000281400032006a00a2806a00df
:0412f40000000600f0
:020000040000fa
:1012f800889fbe008a1f780081047800a818210002
:10130800004c7800114498000040eb0020449800fd
:10131800638540008a0078000800780022000700f2
:101328000a054400004d7800890044004800de00aa
:10133800c0409800e5804400080078005400070089
:0c1348004f0578004f04be0000000600b6
:020000040000fa
:10135400889fbe008a1f7800000478000105780089
:1013640076000700800478003c22ab0001003200c4
:101374003c22a9003e22ab0006003a002012800065
:10138400004d7800100020004f0578004f04be0087
:10139400000006006900070009005000800f540097
:0c13a400f1ff3e000000eb00f7ff3700f7
:020000040000fa
:1013b00080017800810040000080eb00818f5100a7
:1013c00001003a00000006003381fb004811dd00f7
:1013d0000001690084c0b3000200780002014100ee
:1013e0000000e00002003d00100221000001690041
:1013f0000442e90002007800f7ff3a00efff3700ef
:020000040000fa
:10140000a3028000a10288001002ba001081ba0075
:10141000a30288008001eb00c011dd000200200063
:101420006000b8008380fb008002eb0004007000c5
:08143000858070000000060039
:020000040000fa
:1014380080007800b181fb001181fb004811dd00bc
:10144800028171008080e8009181fb006300400008
:101458009080fb00c808dd008180710002007800e0
:04146800000006007a
:020000040000fa
:10146c000021ef000421ef0008a1ef00000880002c
:10147c0054400a0000030000000888000021a90065
:0c148c000028a90001e1a80000000600f3
:020000040000fa
:10149800889fbe000004780081044000890f540032
:1014a80002003a004f04be000000060038407800f1
:0814b80016000700f9ff3700e0
:020000040000fa
:1014c0000010000002000000800000008a110000ef
:1014d00026000000800000000210000088010000cb
:0814e000800000000000000084
:020000040000fa
:1014e80001e1a9000021ef000421ef0008a1ef00ad
:0814f8000028a9000000060015
:020000040000fa
:10150000a1182100b04098001100200050c1b30084
:0415100079ff370028
:020000040000fa
:101514003e82ab00feff3a000080fb0040128800d0
:0415240000000600bd
:020000040000fa
:0c1528008000eb0060c0b30071ff3700d2
:020000040000fa
:0c1534003ce2ab00feff320000000600ad
:020000040000fa
:081540002008800000000600f5
:020000040000fa
:020000040005f5
:047e300078ffff00d8
:020000040000fa
:020000040005f5
:047e38007bffff00cd
:020000040000fa
:020000040005f5
:047e4000ef7fff00d1
:020000040000fa
:020000040005f5
:047e5000ddffff0053
:00000001FF
